:0E0000000C948B000C9400000C9400000C94E7
:10000E0000000C9400000C94BE010C9400000C94A3
:10001E0000000C9400000C9400000C9400000C9452
:10002E0000000C9400000C9400000C9400000C9442
:10003E0000000C9400000C9400000C9400000C9432
:10004E0000000C9400000C9400000C9400000C9422
:10005E0000000C9400000C9400000C9400000C9412
:10006E0000000C9400000C9400000C9400000C9402
:10007E0000000C9400000C9400000C9400000C94F2
:10008E0000000C9400000C9400000C9400000C94E2
:10009E0000000C9400000C9400000C9400000C94D2
:1000AE0000000C9400000C9400000C9400000C94C2
:1000BE0000000C9400000C9400000C9400000C94B2
:1000CE0000000C9400000C9400000C9400000C94A2
:1000DE0000000C9400002020414441204150490072
:1000EE002020544944414B20414441204150490075
:1000FE0001002D4E414E000080C00100000AFE009E
:10010E000200040A06010000F894EE27EFBBF1E0AE
:10011E00F5BFE5BFE0937400E0937500F8E1A89594
:10012E00A4B7A77FA4BFF0936000E09360008DE0BA
:10013E00A2E0BB27ED938A95E9F780E090E2A0E07C
:10014E00B2E0ED930197E9F7E8E0F1E08591959142
:10015E00009761F0A591B59105901590BF01F00142
:10016E0005900D920197E1F7FB01F0CF8BBF8CBF8D
:10017E00E0E0EEBBEFEFEDBFE1E2EEBFC0E0DAE0B4
:10018E000C94C900E0E8E0936100E0E0E0936100C8
:10019E00E2B9E1B9E5B9E4B9E8B9EFEFE7B9E0E002
:1001AE00EBB9EAB9EEB9EDB9E1BBE0BBE4BBE3BB39
:1001BE00E0930201E0930101E0930501E093040155
:1001CE00E0930801E0930701E0930B01E0930A012D
:1001DE00E4BDE5BDE6BDE7BDE8BDE0938000E0937C
:1001EE008100E0938500E0938400E0938700E09324
:1001FE008600E0938900E0938800E0938B00E09303
:10020E008A00E0938D00E0938C00E093B600E093BB
:10021E00B000E093B100E093B200E093B300E0933E
:10022E00B400E0939000E0939100E0939500E0938A
:10023E009400E0939700E0939600E0939900E0938A
:10024E009800E0939B00E0939A00E0939D00E0936A
:10025E009C00E093A000E093A100E093A500E09342
:10026E00A400E093A700E093A600E093A900E0931A
:10027E00A800E093AB00E093AA00E093AD00E093FA
:10028E00AC00E0932001E0932101E0932501E0937F
:10029E002401E0932701E0932601E0932901E093E6
:1002AE002801E0932B01E0932A01E0932D01E093C6
:1002BE002C010E94EA02E0E0E0936B00E0936C00F8
:1002CE00E0936D00E0936800E0936E00E0936F00A2
:1002DE00E0937000E0937100E0937200E09373007E
:1002EE00E0E8E0BFE0E0E0937B00E0E1EA930E940B
:1002FE00B60207D0E0EDF7E0FA93EA9312D0F9CF09
:10030E00FFCF57985F9A0895E0E0E0936900E2E02E
:10031E00E0936A00E0E1EDBBECBB08950E94EA02B7
:10032E0008952F9733244424EFDFEF85F8890E9438
:10033E00F1020E945902E3E0F0E0E315F40554F4F3
:10034E00E4EEF0E00E94F7020E94F1020E94FE022B
:10035E00E1E00BC0EEEEF0E00E94F702FA93EA93B2
:10036E000E941B030E94FE02E0E0619608950A922D
:10037E001A92FA926A937A938A939A93AA93BA9359
:10038E00EA93FA93EFB7EA93E1E0F0E03E0E4F1EE8
:10039E00BBDFE991EFBFF991E991B991A9919991DB
:1003AE00899179916991F990199009901895A9916F
:1003BE00B991E991F99130962AF4E095F09531963C
:1003CE006DE26D93E89480E197E20DD088EE93E0B4
:1003DE000AD084E6992707D08AE005D06E2F10D078
:1003EE0066276C9308956627E817F90720F0639542
:1003FE00E81BF90BC9F7662311F416F008956894FB
:10040E00605D6D930895FFE0FA95F1F70895A7B139
:10041E00AF70A7B9419A4098F6DF429AF4DFA6B1C1
:10042E004298F1DF429AEFDF4298A7FDF5CF08958B
:10043E00A07FAB2BA8B9429A0E940A0242980E9452
:10044E000A0208954198A7B1A76FA7B9B8B1BF70B6
:10045E00A881EEDFA881A295EBDF419A0C94E80209
:10046E00429A0E940A02E6B142980E940A02E07F76
:10047E0008950E940A02F4DFAE2FF2DF4198E29552
:10048E00EA2B08950E940E02E881F0E0EC5FF54F32
:10049E00E081A981EA0FEA930E94290269805880BF
:1004AE00229608950E940E02E2E0EA930E9429022B
:1004BE000E940E02ECE0EA930E9429020E940E02B4
:1004CE00E1E0EA930E942902E0E05E2E6E2E08958E
:1004DE00EF93FF93A8816894AA3019F0E8946814FA
:1004EE0030F05394E0E0EA935A92CCDF36F0639406
:1004FE008EDF409AA881AA93A5DFFF91EF910C940D
:10050E00E8021A93A981BA81ED91A983BA831E2FAD
:10051E00E03019F01A93DCDFF5CF0EC01A93E981A3
:10052E00FA813196E983FA833197E4911E2FE030F8
:10053E0019F01A93CDDFF3CF188123960895AA27C9
:10054E00BB271197F1F708954198A7B1A76FA7B9E7
:10055E00B8B1BF70A8810E941F02419A32C0429862
:10056E0040988880E881E058E093060AE881E054DC
:10057E00E093070A0E9410030E9410030E941003CA
:10058E00DEDFE0E2EA93E0DFDADFE8E20E94160364
:10059E00E4E00E941603E5E80E941603A7B1AF70CF
:1005AE00A7B9419A0E944002E53011F0E0E009C07F
:1005BE000E940E02E6E0EA930E9429020E9459026E
:1005CE00E1E021960895E0E0E0936900E0936A008F
:1005DE00EDBB0895FA93EA930E941B030C949501C8
:1005EE00FA93EA930E949502E4EFF1E008954A929D
:1005FE003A92FE013296FA93EA930E94DE01E0E00F
:10060E00EA93EA930E944902FE01FA93EA930C944C
:10061E0088020E94A602E0E3EA930C94AB02EA93EE
:10062E000E9429020C94A602E991F991309639F0B4
:10063E008DEC9AE00197F1F7A8953197C9F70895D7
:00000001FF
