:080000000C9487000C94000031
:100008000C9400000C9400000C9400000C94000068
:100018000C9400000C9400000C9400000C94000058
:100028000C9400000C9400000C9400000C94000048
:100038000C9400000C9400000C9400000C94000038
:100048000C9400000C9400000C9400000C94000028
:100058000C9400000C9400000C9400000C94000018
:100068000C9400000C9400000C9400000C94000008
:100078000C9400000C9400000C9400000C940000F8
:100088000C9400000C9400000C9400000C940000E8
:100098000C9400000C9400000C9400000C940000D8
:1000A8000C9400000C9400000C9400000C940000C8
:1000B8000C9400000C9400000C9400000C940000B8
:1000C8000C9400000C9400000C9400000C940000A8
:1000D8000C9400000C9400000C9400001027E80316
:1000E80064000A0001000010000110000100010076
:1000F8002D4E414E000080C00100100AF60002009B
:10010800140AFE000000F894EE27EFBBF1E0F5BFFB
:10011800E5BFE0937400E0937500F8E1A895A4B7F3
:10012800A77FA4BFF0936000E09360008DE0A2E099
:10013800BB27ED938A95E9F780E090E2A0E0B2E072
:10014800ED930197E9F7E0E0F1E08591959100974B
:1001580061F0A591B59105901590BF01F00105904A
:100168000D920197E1F7FB01F0CF8BBF8CBFE0E068
:10017800EEBBEFEFEDBFE1E2EEBFC0E0DAE00C94DA
:10018800C500E0E8E0936100E0E0E0936100E2B9D7
:10019800E1B9E5B9E4B9E8B9EFEFE7B9E0E0EBB9FF
:1001A800EAB9EEB9EDB9E1BBE0BBE4BBE3BBE09370
:1001B8000201E0930101E0930501E0930401E0935B
:1001C8000801E0930701E0930B01E0930A01E4BD05
:1001D800E5BDE6BDE7BDE8BDE0938000E0938100A2
:1001E800E0938500E0938400E0938700E093860025
:1001F800E0938900E0938800E0938B00E0938A0005
:10020800E0938D00E0938C00E093B600E093B0009B
:10021800E093B100E093B200E093B300E093B40040
:10022800E0939000E0939100E0939500E0939400B0
:10023800E0939700E0939600E0939900E09398008C
:10024800E0939B00E0939A00E0939D00E0939C006C
:10025800E093A000E093A100E093A500E093A40040
:10026800E093A700E093A600E093A900E093A8001C
:10027800E093AB00E093AA00E093AD00E093AC00FC
:10028800E0932001E0932101E0932501E09324010C
:10029800E0932701E0932601E0932901E0932801E8
:1002A800E0932B01E0932A01E0932D01E0932C01C8
:1002B800E0936900E0936A00EDBBE0936B00E09384
:1002C8006C00E0936D00E0936800E0936E00E093AB
:1002D8006F00E0937000E0937100E0937200E09388
:1002E8007300E0E8E0BFE0E0E0937B000E94860353
:1002F800E0E1EA930E943403E0EEEA93E2E3F0E0FF
:10030800FA93EA9377D0E0EEEA931DD0E0EEEA9311
:100318005FD03E2E4F2E4A923A92E0E0FAE0FA93EE
:10032800EA930E942502E0E0FAE0FA93EA930E9439
:100338001503E4E6F0E0FA93EA930E94D8030E94DA
:10034800E602E1CFFFCF0E948B03E881EA930E9487
:10035800BF03E0E0EA930E94BF03E1E5EA930E944D
:10036800BF030E949A030C9465030E942E0510E0B7
:1003780000E030E040E050E00E946803E1E00E94C5
:100388006E03E0E0EA930E94A4033E2F0E949A03C2
:100398003F3F91F30E946803EE810E946E03E1E003
:1003A800EA930E94A4031E2FE0E0EA930E94A403AC
:1003B8000E2F0E949A03412F5527542F4427E02FD0
:1003C800F0E04E2B5F2BFA010E9435052896089520
:1003D8001A930A93EA81EA93E2E0EA93C6DF8F016F
:1003E800002E012A11F402E310E0F80119810881B6
:1003F8000C9422030E948B03EA81EA930E94BF03B4
:10040800E2E0EA930E94BF03E881F981BB9766277F
:1004180077270E944A04DF01CB01E0E0F0E06CE2BC
:1004280072E40E94CD040E9429050E9480020E9465
:100438001104EA930E94BF030E949A03E1E00C941E
:100448002203A991B991E991F99130962AF4E0959E
:10045800F09531966DE26D93E89480E197E20DD0C6
:1004680088EE93E00AD084E6992707D08AE005D081
:100478006E2F10D066276C9308956627E817F90742
:1004880020F06395E81BF90BC9F7662311F416F001
:1004980008956894605D6D9308957B816A81F98100
:1004A800E88177FB770F67FD7160972F9E5781F082
:1004B80078F0983190F4AA27BB2788270894879565
:1004C800B795A7959A95D1F7EA23FB23682305C02A
:1004D800E8947727EE27FF2766276F77769508F445
:1004E800606877F9A991B99189919991EA17FB0701
:1004F8006807790797FB08950E9478030E942905E9
:100508000E9451020E94240519F40E94780309C030
:10051800E6F30E947803A0E0B0E080E89FE30E9441
:100528007D0424960895FFE0FA95F1F70895A7B1A0
:10053800AF70A7B9419A4098F6DF429AF4DFA6B1A6
:100548004298F1DF429AEFDF4298A7FDF5CF089570
:10055800A07FAB2BA8B9429A0E94970242980E94AA
:10056800970208954198A7B1A76FA7B9B8B1BF700E
:10057800A881EEDFA881A295EBDF419A0C9466036F
:10058800429A0E949702E6B142980E949702E07F41
:1005980008950E949702F4DFAE2FF2DF4198E295AA
:1005A800EA2B08950E949B02E881F0E0EC5EF54F8B
:1005B800E081A981EA0FEA930E94B6026980588017
:1005C800229608950E949B02E2E0EA930E94B602F6
:1005D8000E949B02ECE0EA930E94B6020E949B02F2
:1005E800E1E0EA930E94B602E0E05E2E6E2E0895E6
:1005F800EF93FF93A8816894AA3019F0E8946814DF
:1006080030F05394E0E0EA935A92CCDF36F06394EA
:100618008EDF409AA881AA93A5DFFF91EF910C94F1
:1006280066031A93A981BA81ED91A983BA831E2F13
:10063800E03019F01A93DCDFF5CF1881239608957E
:10064800AA27BB271197F1F708954198A7B1A76F7B
:10065800A7B9B8B1BF70A8810E94AC02419A32C054
:10066800429840988880E881E058E093160AE8812B
:10067800E054E093170A0E947B030E947B030E94C8
:100688007B03DEDFE0E2EA93E0DFDADFE8E20E9404
:100698008103E4E00E948103E5E80E948103A7B199
:1006A800AF70A7B9419A0E94CD02E53011F0E0E0A1
:1006B80009C00E949B02E6E0EA930E94B6020E94EB
:1006C800E602E1E0219608950E948B03EF81EA9308
:1006D8000C94BF03EA930E94BF030E948B03EF812F
:1006E800E160EA930C94BF030E941F0508950E94DD
:1006F8002403E0E3EA930C942903EA930E94B602E8
:100708000C942403739872986B9A6A9815C06A9827
:100718006B98EE270000629B0895639B089504D0B0
:100728006A9A02D06B9AE1E062E107C06A9A6B9A12
:1007380003D06B98F9DF6A9865E26A95F1F7089536
:1007480078E06B98F1DF639BFECFEEDF88946299C7
:1007580008946B9AF1DFEE1F7A9599F779917723D0
:1007680011F46A9801C06A9ADFDF6B98E5DF6B9A2B
:10077800DBDF6A98D9CFE99178E0EE0F10F46A9838
:1007880001C06A9AD9DF6B98CFDF639BFECFCCDFBD
:100798006B9A7A9591F76A98C7DF6B98CDDFE1E09D
:1007A8006299EE276B9A0895E991F991309639F09C
:1007B8008DEC9AE00197F1F7A8953197C9F708955C
:1007C800552342F4503811F4E0FF04C03196691FF4
:1007D800791F6BF050E8572711F45F93C8C05F3F4B
:1007E80031F0660F000C57956795752F08955F9344
:1007F80000200AF0C8C0C1C050E8192E1522880F81
:10080800991F9527550F879550E8072E0522660FE3
:10081800771F7527550F67950895689401C0E89468
:100828005F93F2DF703818F07F3F08F4A0C056E1FC
:10083800571BAAF4519558300EF4593030F0EFEFA9
:10084800FFEF6FEF7FE777F91AC077275523B9F0E5
:10085800EE0FFF1F661F771F5A95D1F710C0772735
:10086800583028F0EF2FF62F672F5850F9CF55231F
:1008780031F076956795F795E7955A95D1F7002069
:100888000AF4CCD05F910895689401C0E894309739
:1008980060407040B1F0002426F0772312F40094F1
:1008A800BDD0172E7EE1112032F07A95EE0FFF1F92
:1008B800661F111CF9CFEF2FF62F612D5F938ADF8A
:1008C8005F9108954F93AF01FD01DA01AB01BC01BF
:1008D800CA01402D012C142E4F910895EA0FFB1FD9
:1008E800681F0895E095F0956095EF5FFF4F6F4F93
:1008F80008955F9381DF903839F1703821F1572FCF
:10090800591B2BF112F4DEDFFACF583118F0AA2761
:10091800BB278827583028F0AB2FB82F8827585086
:10092800F9CF552329F08695B795A7955A95D9F704
:10093800502D512572F0D2DF38F46795F795E79579
:10094800739513F420C0BEDF45DF5F910895D8F793
:10095800FBCFEA1BFB0B680B51F010F40094C2DFCD
:10096800662392F3EE0FFF1F661F7A95CBF7EE27EB
:10097800FF27662777275F910895EFEFFFEF6FE76F
:100988007FEF5F910895EFEFFFEF6FE77FE75F91EC
:1009980008955F9331DF703821F411200AF4EDCF08
:1009A800F2CF903809F4E3CF01240894970B1BF495
:1009B800D4F30020F3CF792F1F932F933F934F93B6
:1009C80011241127222733274427552790E2AE17F1
:1009D800BF078607410730F0AE1BBF0B860B410BE4
:1009E800089401C08894551F221F331F111CAA1F89
:1009F800BB1F881F441F9A9551F7F901612D4F912C
:100A08003F912F911F91662332F0550FEE1FFF1F64
:100A1800661F7A9543F2D4DE5F910895F09560954C
:100A28007095E195FF4F6F4F7F4F08956F2F660FB9
:100A3800660B762F0895E881F9816A817B81089594
:100A4800E883F9836A837B8308957A936A93FA9398
:100A5800EA9308955A934A933A932A931A930A93D6
:100A680008955D814C813B812A811981088108950F
:00000001FF
